{
  "address": "0x378f110af67faD24a7e4311D6B33c81d5810B089",
  "abi": [
    {
      "inputs": [],
      "stateMutability": "nonpayable",
      "type": "constructor"
    },
    {
      "inputs": [],
      "name": "ONE_HUNDRED_PERCENT",
      "outputs": [
        {
          "internalType": "uint256",
          "name": "",
          "type": "uint256"
        }
      ],
      "stateMutability": "view",
      "type": "function"
    },
    {
      "inputs": [
        {
          "internalType": "contract IERC20",
          "name": "tokenIn",
          "type": "address"
        },
        {
          "internalType": "contract IERC20",
          "name": "tokenOut",
          "type": "address"
        },
        {
          "internalType": "uint256",
          "name": "tokenInAmount",
          "type": "uint256"
        },
        {
          "internalType": "uint256",
          "name": "tokenOutAmount",
          "type": "uint256"
        }
      ],
      "name": "isPriceValid",
      "outputs": [
        {
          "internalType": "bool",
          "name": "",
          "type": "bool"
        }
      ],
      "stateMutability": "view",
      "type": "function"
    },
    {
      "inputs": [
        {
          "internalType": "address",
          "name": "_token",
          "type": "address"
        },
        {
          "internalType": "uint256",
          "name": "_price",
          "type": "uint256"
        }
      ],
      "name": "setPriceOf",
      "outputs": [],
      "stateMutability": "nonpayable",
      "type": "function"
    },
    {
      "inputs": [
        {
          "internalType": "address",
          "name": "",
          "type": "address"
        }
      ],
      "name": "testPrices",
      "outputs": [
        {
          "internalType": "uint256",
          "name": "",
          "type": "uint256"
        }
      ],
      "stateMutability": "view",
      "type": "function"
    }
  ],
  "transactionHash": "0x0eecf3e396d5809a79c0228f335df0b65b46c885ff715a16e9449da9e03dd863",
  "args": [],
  "numDeployments": 1,
  "solcInputHash": "640f97803a4ab45f8578802f427ddbd9",
  "bytecode": "0x608060405234801561001057600080fd5b506001600080736bad8529bb6530a7ee00bd55a62c507ab2dc6ae873ffffffffffffffffffffffffffffffffffffffff1673ffffffffffffffffffffffffffffffffffffffff168152602001908152602001600020819055506107d0600080737f25168fd1668691546aa994b90a124b94d3899873ffffffffffffffffffffffffffffffffffffffff1673ffffffffffffffffffffffffffffffffffffffff168152602001908152602001600020819055506105f3806100d16000396000f3fe608060405234801561001057600080fd5b506004361061004c5760003560e01c80630f6322c4146100515780632529bcde1461006d578063dd0081c71461009d578063ec062b75146100bb575b600080fd5b61006b600480360381019061006691906102ef565b6100eb565b005b6100876004803603810190610082919061036d565b610132565b60405161009491906103ef565b60405180910390f35b6100a5610239565b6040516100b29190610419565b60405180910390f35b6100d560048036038101906100d09190610434565b61023e565b6040516100e29190610419565b60405180910390f35b806000808473ffffffffffffffffffffffffffffffffffffffff1673ffffffffffffffffffffffffffffffffffffffff168152602001908152602001600020819055505050565b6000806000808773ffffffffffffffffffffffffffffffffffffffff1673ffffffffffffffffffffffffffffffffffffffff168152602001908152602001600020548461017f9190610490565b8161018a91906104ea565b90506000836000808873ffffffffffffffffffffffffffffffffffffffff1673ffffffffffffffffffffffffffffffffffffffff168152602001908152602001600020546101d89190610490565b90506000821180156101ea5750600081115b610229576040517f08c379a00000000000000000000000000000000000000000000000000000000081526004016102209061059d565b60405180910390fd5b8082111592505050949350505050565b606481565b60006020528060005260406000206000915090505481565b600080fd5b600073ffffffffffffffffffffffffffffffffffffffff82169050919050565b60006102868261025b565b9050919050565b6102968161027b565b81146102a157600080fd5b50565b6000813590506102b38161028d565b92915050565b6000819050919050565b6102cc816102b9565b81146102d757600080fd5b50565b6000813590506102e9816102c3565b92915050565b6000806040838503121561030657610305610256565b5b6000610314858286016102a4565b9250506020610325858286016102da565b9150509250929050565b600061033a8261027b565b9050919050565b61034a8161032f565b811461035557600080fd5b50565b60008135905061036781610341565b92915050565b6000806000806080858703121561038757610386610256565b5b600061039587828801610358565b94505060206103a687828801610358565b93505060406103b7878288016102da565b92505060606103c8878288016102da565b91505092959194509250565b60008115159050919050565b6103e9816103d4565b82525050565b600060208201905061040460008301846103e0565b92915050565b610413816102b9565b82525050565b600060208201905061042e600083018461040a565b92915050565b60006020828403121561044a57610449610256565b5b6000610458848285016102a4565b91505092915050565b7f4e487b7100000000000000000000000000000000000000000000000000000000600052601160045260246000fd5b600061049b826102b9565b91506104a6836102b9565b9250817fffffffffffffffffffffffffffffffffffffffffffffffffffffffffffffffff04831182151516156104df576104de610461565b5b828202905092915050565b60006104f5826102b9565b9150610500836102b9565b9250827fffffffffffffffffffffffffffffffffffffffffffffffffffffffffffffffff0382111561053557610534610461565b5b828201905092915050565b600082825260208201905092915050565b7f43616e6e6f742068617665203000000000000000000000000000000000000000600082015250565b6000610587600d83610540565b915061059282610551565b602082019050919050565b600060208201905081810360008301526105b68161057a565b905091905056fea264697066735822122097b52aa806fcc3bf36b95dac5a8b593ebd96351e3562b6e55588cc2fa467643e64736f6c634300080e0033",
  "devdoc": {
    "kind": "dev",
    "methods": {},
    "version": 1
  },
  "userdoc": {
    "kind": "user",
    "methods": {},
    "version": 1
  },
  "storageLayout": {
    "storage": [
      {
        "astId": 194,
        "contract": "contracts/Oracle.sol:Oracle",
        "label": "testPrices",
        "offset": 0,
        "slot": "0",
        "type": "t_mapping(t_address,t_uint256)"
      }
    ],
    "types": {
      "t_address": {
        "encoding": "inplace",
        "label": "address",
        "numberOfBytes": "20"
      },
      "t_mapping(t_address,t_uint256)": {
        "encoding": "mapping",
        "key": "t_address",
        "label": "mapping(address => uint256)",
        "numberOfBytes": "32",
        "value": "t_uint256"
      },
      "t_uint256": {
        "encoding": "inplace",
        "label": "uint256",
        "numberOfBytes": "32"
      }
    }
  }
}