{
  "address": "0xbb7Bb954336F05bb5F14232f802aC05FC5b928F0",
  "abi": [
    {
      "inputs": [
        {
          "internalType": "contract ICallExecutor",
          "name": "callExecutor",
          "type": "address"
        }
      ],
      "stateMutability": "nonpayable",
      "type": "constructor"
    },
    {
      "inputs": [],
      "name": "BitUsed",
      "type": "error"
    },
    {
      "inputs": [],
      "name": "Expired",
      "type": "error"
    },
    {
      "inputs": [],
      "name": "InvalidBit",
      "type": "error"
    },
    {
      "inputs": [
        {
          "internalType": "uint256",
          "name": "amountReceived",
          "type": "uint256"
        }
      ],
      "name": "NotEnoughReceived",
      "type": "error"
    },
    {
      "anonymous": false,
      "inputs": [],
      "name": "InvalidData",
      "type": "event"
    },
    {
      "stateMutability": "nonpayable",
      "type": "fallback"
    },
    {
      "inputs": [],
      "name": "ONE_HUNDRED_PERCENT",
      "outputs": [
        {
          "internalType": "uint256",
          "name": "",
          "type": "uint256"
        }
      ],
      "stateMutability": "view",
      "type": "function"
    },
    {
      "inputs": [
        {
          "internalType": "contract IERC20",
          "name": "tokenIn",
          "type": "address"
        },
        {
          "internalType": "contract IERC20",
          "name": "tokenOut",
          "type": "address"
        },
        {
          "internalType": "uint256",
          "name": "tokenInAmount",
          "type": "uint256"
        },
        {
          "internalType": "uint256",
          "name": "tokenOutAmount",
          "type": "uint256"
        }
      ],
      "name": "_isPriceValid",
      "outputs": [
        {
          "internalType": "bool",
          "name": "",
          "type": "bool"
        }
      ],
      "stateMutability": "view",
      "type": "function"
    },
    {
      "inputs": [
        {
          "internalType": "address",
          "name": "_token",
          "type": "address"
        },
        {
          "internalType": "uint256",
          "name": "_price",
          "type": "uint256"
        }
      ],
      "name": "setPriceOf",
      "outputs": [],
      "stateMutability": "nonpayable",
      "type": "function"
    },
    {
      "inputs": [
        {
          "internalType": "address",
          "name": "",
          "type": "address"
        }
      ],
      "name": "testPrices",
      "outputs": [
        {
          "internalType": "uint256",
          "name": "",
          "type": "uint256"
        }
      ],
      "stateMutability": "view",
      "type": "function"
    },
    {
      "inputs": [
        {
          "internalType": "uint256",
          "name": "bitmapIndex",
          "type": "uint256"
        },
        {
          "internalType": "uint256",
          "name": "bit",
          "type": "uint256"
        },
        {
          "internalType": "contract IERC20",
          "name": "tokenIn",
          "type": "address"
        },
        {
          "internalType": "contract IERC20",
          "name": "tokenOut",
          "type": "address"
        },
        {
          "internalType": "uint256",
          "name": "tokenInAmount",
          "type": "uint256"
        },
        {
          "internalType": "uint256",
          "name": "tokenOutAmount",
          "type": "uint256"
        },
        {
          "internalType": "uint256",
          "name": "expiryBlock",
          "type": "uint256"
        },
        {
          "internalType": "address",
          "name": "recipient",
          "type": "address"
        },
        {
          "internalType": "address",
          "name": "to",
          "type": "address"
        },
        {
          "internalType": "bytes",
          "name": "data",
          "type": "bytes"
        }
      ],
      "name": "tokenToToken",
      "outputs": [],
      "stateMutability": "nonpayable",
      "type": "function"
    }
  ],
  "transactionHash": "0x0b3c0dfc0c1d29b54c70415eab37d04cd316bfdd5602f1ca51a18ad104919f19",
  "args": [
    "0xDE61dfE5fbF3F4Df70B16D0618f69B96A2754bf8"
  ],
  "numDeployments": 8,
  "solcInputHash": "0af246b56daffa8a3d96afc290f54282",
  "bytecode": "0x60a06040523480156200001157600080fd5b5060405162000f3438038062000f348339818101604052810190620000379190620000f0565b8073ffffffffffffffffffffffffffffffffffffffff1660808173ffffffffffffffffffffffffffffffffffffffff16815250505062000122565b600080fd5b600073ffffffffffffffffffffffffffffffffffffffff82169050919050565b6000620000a48262000077565b9050919050565b6000620000b88262000097565b9050919050565b620000ca81620000ab565b8114620000d657600080fd5b50565b600081519050620000ea81620000bf565b92915050565b60006020828403121562000109576200010862000072565b5b60006200011984828501620000d9565b91505092915050565b608051610df66200013e60003960006103220152610df66000f3fe608060405234801561001057600080fd5b506004361061005b5760003560e01c80630f6322c41461008a5780631536cc73146100a6578063dd0081c7146100c2578063e44b345c146100e0578063ec062b75146101105761005c565b5b7f5cb045dbe1e6a83a0b3b08b74d52e9d7458a678ccdbe4247774b0abb20db402f60405160405180910390a1005b6100a4600480360381019061009f9190610761565b610140565b005b6100c060048036038101906100bb9190610844565b610187565b005b6100ca61048d565b6040516100d79190610953565b60405180910390f35b6100fa60048036038101906100f5919061096e565b610492565b60405161010791906109f0565b60405180910390f35b61012a60048036038101906101259190610a0b565b610599565b6040516101379190610953565b60405180910390f35b806000808473ffffffffffffffffffffffffffffffffffffffff1673ffffffffffffffffffffffffffffffffffffffff168152602001908152602001600020819055505050565b61019389898989610492565b6101d2576040517f08c379a00000000000000000000000000000000000000000000000000000000081526004016101c990610a95565b60405180910390fd5b43851161020b576040517f203d82d800000000000000000000000000000000000000000000000000000000815260040160405180910390fd5b6102158b8b6105b1565b600061021f610657565b905060008973ffffffffffffffffffffffffffffffffffffffff166370a08231836040518263ffffffff1660e01b815260040161025c9190610ac4565b602060405180830381865afa158015610279573d6000803e3d6000fd5b505050506040513d601f19601f8201168201806040525081019061029d9190610af4565b90508a73ffffffffffffffffffffffffffffffffffffffff166323b872dd83888c6040518463ffffffff1660e01b81526004016102dc93929190610b21565b6020604051808303816000875af11580156102fb573d6000803e3d6000fd5b505050506040513d601f19601f8201168201806040525081019061031f9190610b84565b507f000000000000000000000000000000000000000000000000000000000000000073ffffffffffffffffffffffffffffffffffffffff16632a31f6b48686866040518463ffffffff1660e01b815260040161037d93929190610c0f565b600060405180830381600087803b15801561039757600080fd5b505af11580156103ab573d6000803e3d6000fd5b505050506000818b73ffffffffffffffffffffffffffffffffffffffff166370a08231856040518263ffffffff1660e01b81526004016103eb9190610ac4565b602060405180830381865afa158015610408573d6000803e3d6000fd5b505050506040513d601f19601f8201168201806040525081019061042c9190610af4565b6104369190610c70565b90508881101561047d57806040517f8e3b9edc0000000000000000000000000000000000000000000000000000000081526004016104749190610953565b60405180910390fd5b5050505050505050505050505050565b606481565b6000806000808773ffffffffffffffffffffffffffffffffffffffff1673ffffffffffffffffffffffffffffffffffffffff16815260200190815260200160002054846104df9190610ca4565b816104ea9190610cfe565b90506000836000808873ffffffffffffffffffffffffffffffffffffffff1673ffffffffffffffffffffffffffffffffffffffff168152602001908152602001600020546105389190610ca4565b905060008211801561054a5750600081115b610589576040517f08c379a000000000000000000000000000000000000000000000000000000000815260040161058090610da0565b60405180910390fd5b8082111592505050949350505050565b60006020528060005260406000206000915090505481565b6105ba8161066c565b6105f0576040517f8e8721ac00000000000000000000000000000000000000000000000000000000815260040160405180910390fd5b60006105fb83610680565b90506000610608826106b8565b9050600083821614610646576040517f8c2e095100000000000000000000000000000000000000000000000000000000815260040160405180910390fd5b600083821790508083555050505050565b6000601460286000303c60005160601c905090565b600060018203821615821515169050919050565b6000817f6c0dc1c455ee100500be45eb5af9d4c93f609d5877e81b7c1f2a01280732dbeb6106ae9190610cfe565b60001b9050919050565b600081549050919050565b600080fd5b600080fd5b600073ffffffffffffffffffffffffffffffffffffffff82169050919050565b60006106f8826106cd565b9050919050565b610708816106ed565b811461071357600080fd5b50565b600081359050610725816106ff565b92915050565b6000819050919050565b61073e8161072b565b811461074957600080fd5b50565b60008135905061075b81610735565b92915050565b60008060408385031215610778576107776106c3565b5b600061078685828601610716565b92505060206107978582860161074c565b9150509250929050565b60006107ac826106ed565b9050919050565b6107bc816107a1565b81146107c757600080fd5b50565b6000813590506107d9816107b3565b92915050565b600080fd5b600080fd5b600080fd5b60008083601f840112610804576108036107df565b5b8235905067ffffffffffffffff811115610821576108206107e4565b5b60208301915083600182028301111561083d5761083c6107e9565b5b9250929050565b60008060008060008060008060008060006101408c8e03121561086a576108696106c3565b5b60006108788e828f0161074c565b9b505060206108898e828f0161074c565b9a5050604061089a8e828f016107ca565b99505060606108ab8e828f016107ca565b98505060806108bc8e828f0161074c565b97505060a06108cd8e828f0161074c565b96505060c06108de8e828f0161074c565b95505060e06108ef8e828f01610716565b9450506101006109018e828f01610716565b9350506101208c013567ffffffffffffffff811115610923576109226106c8565b5b61092f8e828f016107ee565b92509250509295989b509295989b9093969950565b61094d8161072b565b82525050565b60006020820190506109686000830184610944565b92915050565b60008060008060808587031215610988576109876106c3565b5b6000610996878288016107ca565b94505060206109a7878288016107ca565b93505060406109b88782880161074c565b92505060606109c98782880161074c565b91505092959194509250565b60008115159050919050565b6109ea816109d5565b82525050565b6000602082019050610a0560008301846109e1565b92915050565b600060208284031215610a2157610a206106c3565b5b6000610a2f84828501610716565b91505092915050565b600082825260208201905092915050565b7f507269636520746f6f2068696768000000000000000000000000000000000000600082015250565b6000610a7f600e83610a38565b9150610a8a82610a49565b602082019050919050565b60006020820190508181036000830152610aae81610a72565b9050919050565b610abe816106ed565b82525050565b6000602082019050610ad96000830184610ab5565b92915050565b600081519050610aee81610735565b92915050565b600060208284031215610b0a57610b096106c3565b5b6000610b1884828501610adf565b91505092915050565b6000606082019050610b366000830186610ab5565b610b436020830185610ab5565b610b506040830184610944565b949350505050565b610b61816109d5565b8114610b6c57600080fd5b50565b600081519050610b7e81610b58565b92915050565b600060208284031215610b9a57610b996106c3565b5b6000610ba884828501610b6f565b91505092915050565b600082825260208201905092915050565b82818337600083830152505050565b6000601f19601f8301169050919050565b6000610bee8385610bb1565b9350610bfb838584610bc2565b610c0483610bd1565b840190509392505050565b6000604082019050610c246000830186610ab5565b8181036020830152610c37818486610be2565b9050949350505050565b7f4e487b7100000000000000000000000000000000000000000000000000000000600052601160045260246000fd5b6000610c7b8261072b565b9150610c868361072b565b925082821015610c9957610c98610c41565b5b828203905092915050565b6000610caf8261072b565b9150610cba8361072b565b9250817fffffffffffffffffffffffffffffffffffffffffffffffffffffffffffffffff0483118215151615610cf357610cf2610c41565b5b828202905092915050565b6000610d098261072b565b9150610d148361072b565b9250827fffffffffffffffffffffffffffffffffffffffffffffffffffffffffffffffff03821115610d4957610d48610c41565b5b828201905092915050565b7f43616e6e6f742068617665203000000000000000000000000000000000000000600082015250565b6000610d8a600d83610a38565b9150610d9582610d54565b602082019050919050565b60006020820190508181036000830152610db981610d7d565b905091905056fea264697066735822122035dd5f799daaf0c6f58f072086a698f05373000cbb1ac28a0014ed8c1ff65f9b64736f6c634300080e0033",
  "devdoc": {
    "errors": {
      "BitUsed()": [
        {
          "details": "Revert when bit provided is used"
        }
      ],
      "Expired()": [
        {
          "details": "Revert when limit swap is expired"
        }
      ],
      "InvalidBit()": [
        {
          "details": "Revert when bit provided is not valid"
        }
      ],
      "NotEnoughReceived(uint256)": [
        {
          "details": "Revert when swap has not received enough of the output asset to be fulfilled"
        }
      ]
    },
    "kind": "dev",
    "methods": {
      "tokenToToken(uint256,uint256,address,address,uint256,uint256,uint256,address,address,bytes)": {
        "details": "Executes an ERC20 to ERC20 limit swap",
        "params": {
          "bit": "The value of the replay bit [signed]",
          "bitmapIndex": "The index of the replay bit's bytes32 slot [signed]",
          "data": "Data to execute on the `to` contract to fulfill the swap [unsigned]",
          "expiryBlock": "The block when the swap expires [signed]",
          "to": "Address of the contract that will fulfill the swap [unsigned]",
          "tokenIn": "The input token provided for the swap [signed]",
          "tokenInAmount": "Amount of tokenIn provided [signed]",
          "tokenOut": "The output token required to be received from the swap [signed]",
          "tokenOutAmount": "Amount of tokenOut required to be received [signed]"
        }
      }
    },
    "title": "Verifier for ERC20 limit swaps",
    "version": 1
  },
  "userdoc": {
    "kind": "user",
    "methods": {
      "tokenToToken(uint256,uint256,address,address,uint256,uint256,uint256,address,address,bytes)": {
        "notice": "This should be executed by metaDelegateCall() or metaDelegateCall_EIP1271() with the following signed and unsigned params"
      }
    },
    "notice": "These functions should be executed by metaPartialSignedDelegateCall() on Brink account proxy contracts",
    "version": 1
  },
  "storageLayout": {
    "storage": [
      {
        "astId": 194,
        "contract": "contracts/Verifier.sol:StopLimitSwapVerifier",
        "label": "testPrices",
        "offset": 0,
        "slot": "0",
        "type": "t_mapping(t_address,t_uint256)"
      }
    ],
    "types": {
      "t_address": {
        "encoding": "inplace",
        "label": "address",
        "numberOfBytes": "20"
      },
      "t_mapping(t_address,t_uint256)": {
        "encoding": "mapping",
        "key": "t_address",
        "label": "mapping(address => uint256)",
        "numberOfBytes": "32",
        "value": "t_uint256"
      },
      "t_uint256": {
        "encoding": "inplace",
        "label": "uint256",
        "numberOfBytes": "32"
      }
    }
  }
}